:020000040000FA
:100000000C945D000C9485000C9485000C94850084
:100010000C9485000C9485000C9485000C9485004C
:100020000C945C060C9485000C9485000C9485005F
:100030000C9485000C9485000C9485000C9485002C
:100040000C94F3040C9485000C94C1040C949B0450
:100050000C9485000C9485000C9485000C9485000C
:100060000C943D050C94850000000000250028003C
:100070002B0000000008000201000003040700003C
:1000800000000000000000000000230026002900FE
:10009000040404040404040402020202020203032E
:1000A0000303030301020408102040800102040836
:1000B00010200102040810200F0711241FBECFEFEB
:1000C000D8E0DEBFCDBF23E0A0E3B1E001C01D92C8
:1000D000A13BB207E1F711E0A0E0B1E0E4EAF0E112
:1000E00002C005900D92A033B107D9F710E0CDE51D
:1000F000D0E004C02197FE010E944A08CC35D10708
:10010000C9F70E946E070C9450080C940000ACE9EB
:10011000B2E011968C93119790E0FC01EC55FF4FE3
:10012000E4911496EC931497FC01E057FF4FE4918F
:10013000F0E0EE0FFF1FEA57FF4F85919491139661
:100140009C938E9312970895FC01538D448D252F17
:1001500030E0842F90E0821B930B541710F0CF9661
:10016000089501970895FC01918D828D981761F093
:10017000A28DAE0FBF2FB11D5D968C91928D9F5FAA
:100180009F73928F90E008958FEF9FEF0895FC0189
:10019000918D828D981731F0828DE80FF11D858D3C
:1001A00090E008958FEF9FEF0895FC01918D228DCF
:1001B000892F90E0805C9F4F821B91098F73992754
:1001C0000895FC01A48DA80FB92FB11DA35ABF4FEC
:1001D0002C91848D90E001968F739927848FA68946
:1001E000B7892C93A089B1898C91837080648C939A
:1001F000938D848D981306C00288F389E02D808149
:100200008F7D80830895EF92FF920F931F93CF937A
:10021000DF93EC0181E0888F9B8D8C8D98131AC041
:10022000E889F989808185FF15C09FB7F894EE8928
:10023000FF896083E889F989808183708064808385
:100240009FBF81E090E0DF91CF911F910F91FF90D0
:10025000EF900895F62E0B8D10E00F5F1F4F0F7378
:100260001127E02E8C8D8E110CC00FB607FCFACF33
:10027000E889F989808185FFF5CFCE010E94E100F0
:10028000F1CFEB8DEC0FFD2FF11DE35AFF4FF08204
:100290009FB7F8940B8FEA89FB8980818062CFCF6A
:1002A000CF93DF93EC01888D8823B9F0AA89BB89AD
:1002B000E889F9898C9185FD03C0808186FD0DC098
:1002C0000FB607FCF7CF8C9185FFF2CF808185FFB9
:1002D000EDCFCE010E94E100E9CFDF91CF910895EB
:1002E00083EF91E00E94D50021E0892B09F420E002
:1002F000822F089580E090E0892B29F00E94700100
:1003000081110C940000089508950895AF92BF9252
:10031000CF92DF92EF92FF920F931F93CF93DF93D1
:100320006C017B018B01040F151FEB015E01AE1800
:10033000BF08C017D10759F06991D601ED91FC9122
:100340000190F081E02DC6010995892B79F7C5014F
:10035000DF91CF911F910F91FF90EF90DF90CF90A1
:10036000BF90AF90089590E0FC01EE58FF4F2491AC
:10037000FC01EC55FF4F3491FC01E057FF4FE49135
:10038000EE23C9F0222339F0233001F1A8F4213003
:1003900019F1223029F1F0E0EE0FFF1FE859FF4F6D
:1003A000A591B4918FB7F894EC91611126C0309566
:1003B0003E233C938FBF08952730A9F02830C9F021
:1003C000243049F7809180008F7D03C080918000A8
:1003D0008F7780938000DFCF84B58F7784BDDBCFAC
:1003E00084B58F7DFBCF8091B0008F778093B00074
:1003F000D2CF8091B0008F7DF9CF3E2BDACF3FB7BF
:10040000F8948091E7019091E801A091E901B09101
:10041000EA0126B5A89B05C02F3F19F00196A11D42
:10042000B11D3FBFBA2FA92F982F8827BC01CD013E
:10043000620F711D811D911D42E0660F771F881F9D
:10044000991F4A95D1F708958F929F92AF92BF92CC
:10045000CF92DF92EF92FF924B015C010E94FF016D
:100460006B017C010E94FF016C197D098E099F09B7
:10047000683E734081059105A8F321E0821A910836
:10048000A108B10888EEC80E83E0D81EE11CF11C5B
:1004900081149104A104B10429F7FF90EF90DF903B
:1004A000CF90BF90AF909F908F9008950895209126
:1004B0007101260F3327331F21323105ECF42091CF
:1004C000BA01FC0190E080E0243069F082E00895F8
:1004D000A09171012191AC014F5A5E4FA40FB52F2D
:1004E000B11D2C930196861798F380917101680FC6
:1004F0006093710180E0089581E008951092BA013F
:1005000081E08093B9011092940161E082E10E9440
:10051000B30161E083E10E94B301E9EBF0E0808187
:100520008E7F808380818D7F808388E48093B80074
:1005300085E48093BC000895CF93DF9391E090937E
:1005400050018823B9F0C091B800D091BA008091D1
:10055000BC008A7B8093BC0060E082E10E94B30112
:1005600060E083E10E94B3010E947E02D093BA0052
:10057000C093B800DF91CF9108950895E091F20102
:100580008091F101E81730F4F0E0E05DFE4F8081EA
:1005900090E008958FEF9FEF08959091F201809180
:1005A000F1012FEF3FEF981748F4E92FF0E0E05DFD
:1005B000FE4F208130E09F5F9093F201C9010895C2
:1005C0008091F1019091F201891B990B0895CF92CE
:1005D000DF92EF92FF920F931F93CF93DF937C01F3
:1005E000CB018A012091C001222389F0EB016B012C
:1005F000C40ED51ECC15DD0569F06991D701ED91CA
:10060000FC910190F081E02DC7010995F3CF642F93
:100610000E945702C801DF91CF911F910F91FF9067
:10062000EF90DF90CF900895CF93DF931F92CDB7D7
:10063000DEB769832091C0012223F9F02091EF01F8
:10064000203258F021E030E0FC013383228390E037
:1006500080E00F90DF91CF9108958091F001E82F15
:10066000F0E0EF53FE4F998190838F5F8093F0010C
:100670008093EF0181E090E0ECCF61E0CE01019644
:100680000E945702F7CFCF92DF92EF92FF920F9323
:100690001F93CF93DF93FC01C48121E02093C0011D
:1006A000C093E1011092F0011092EF018385682B55
:1006B00080E992E00E941403D091EF01D13208F05A
:1006C00092C00E94FF016B017C018091BA018111EF
:1006D00065C082E08093BA0181E08093B9018FEF19
:1006E0008093B8011092B701D093B601A1ECB1E0AC
:1006F000E6E9F1E080E0D81385C010929501809181
:100700009501CC0FC82BC093950180919401813045
:1007100009F07CC0109294010E94FF016B017C01E2
:10072000809195018093BB008091BC019091BD01A7
:10073000A091BE01B091BF01892B8A2B8B2B99F020
:100740000E94FF010091BC011091BD012091BE01EA
:100750003091BF016C197D098E099F090617170793
:1007600028073907E0F18091BC0083FDD9CF85ECE3
:100770008093BC000E94FF016B017C018091BA0153
:10078000823009F445C08091B8018F3F61F18091BA
:10079000B801803241F18091B80125C08091BC013F
:1007A0009091BD01A091BE01B091BF01892B8A2B10
:1007B0008B2B09F48ACF0E94FF010091BC0110919C
:1007C000BD012091BE013091BF016C197D098E09D8
:1007D0009F09061717072807390708F076CF809179
:1007E000BB010E949C021092F0011092EF01109246
:1007F000C001DF91CF911F910F91FF90EF90DF909B
:10080000CF9008959D9191938F5F75CF85EEB0CF76
:100810008091BC019091BD01A091BE01B091BF013A
:10082000892B8A2B8B2B09F4A9CF0E94FF01009101
:10083000BC011091BD012091BE013091BF016C1926
:100840007D098E099F09061717072807390708F041
:1008500095CFC5CF90E080E008950F931F93CF937D
:100860008C01C62F0E9443036C2F6460C8010E9454
:1008700043036C2F6B7FC8010E94430383EC90E01D
:100880000197F1F7CF911F910F9108950F931F9347
:10089000CF93DF938C01D62FC42F607F642B0E94EF
:1008A0002D0480E1D89FB00111246C2BC801DF9189
:1008B000CF911F910F910C942D0441E00E944604AA
:1008C00081E090E0089585ED8093BC008091BC01AB
:1008D0009091BD01A091BE01B091BF010796A11DED
:1008E000B11D23E0B695A795979587952A95D1F7E1
:1008F0002091BC0024FD03C01092BA0108954091DC
:10090000BC015091BD016091BE017091BF01452BAA
:10091000462B472B69F30097A105B10541F025E36C
:100920002A95F1F700000197A109B109E1CF809163
:10093000BB010C949C021F920F920FB60F921124D0
:100940002F933F934F935F936F937F938F939F93D7
:10095000AF93BF93EF93FF9383EF91E00E94E10089
:10096000FF91EF91BF91AF919F918F917F916F9187
:100970005F914F913F912F910F900FBE0F901F905D
:1009800018951F920F920FB60F9211242F938F93E9
:100990009F93EF93FF93E0910302F0910402808113
:1009A000E0910902F0910A0282FD1BC090818091C2
:1009B0000C028F5F8F7320910D02821741F0E0913E
:1009C0000C02F0E0ED50FE4F958F80930C02FF91EA
:1009D000EF919F918F912F910F900FBE0F901F90CD
:1009E00018958081F4CF1F920F920FB60F921124A9
:1009F0002F933F938F939F93AF93BF938091E30186
:100A00009091E401A091E501B091E6013091E201FD
:100A100023E0230F2D3758F50196A11DB11D20931A
:100A2000E2018093E3019093E401A093E501B09388
:100A3000E6018091E7019091E801A091E901B09170
:100A4000EA010196A11DB11D8093E7019093E80191
:100A5000A093E901B093EA01BF91AF919F918F916B
:100A60003F912F910F900FBE0F901F90189526E881
:100A7000230F0296A11DB11DD2CF1F920F920FB668
:100A80000F9211242F933F934F935F936F937F9314
:100A90008F939F93AF93BF93EF93FF938091B90090
:100AA000887F803609F44AC0F0F5883209F4A7C07F
:100AB00018F5803109F49BC0B8F4882309F4F9C013
:100AC000883009F494C0FF91EF91BF91AF919F914D
:100AD0008F917F916F915F914F913F912F910F90E7
:100AE0000FBE0F901F901895883109F488C080328E
:100AF00051F78093B80114C0803409F49DC040F4CC
:100B00008033B9F38833F9F68093B80185ECB0C02F
:100B1000803509F485C0883509F496C0883499F683
:100B20000E946304D0CF883909F48CC038F5883727
:100B300029F050F4883611F0803729F683E080934D
:100B4000BA011092930157C0883809F47BC08039EC
:100B500019F0803809F0B7CF80919301803208F006
:100B600071C0E091930181E08E0F80939301809199
:100B7000BB00F0E0ED58FE4F80833DC0803B39F074
:100B8000E0F4803A09F479C0883A09F09CCF84E017
:100B90008093BA011092720110927101E091ED01FF
:100BA000F091EE0109958091710181110FC081E0F2
:100BB000809371011092510109C0803C09F4A6CFC5
:100BC000883C09F4A3CF883B09F07DCFE091720106
:100BD00081E08E0F80937201F0E0EF5AFE4F80812A
:100BE0008093BB00909172018091710129C0809126
:100BF00095018093BB0085EC8093BC0064CF9091FD
:100C0000B7018091B601981758F5E091B70181E0DE
:100C10008E0F8093B701F0E0EA56FE4F8081E9CF56
:100C2000E091B70181E08E0F8093B7018091BB0006
:100C3000F0E0EA56FE4F80839091B7018091B601B3
:100C40009817C8F285E8D8CFE091B70181E08E0F00
:100C50008093B7018091BB00F0E0EA56FE4F80839D
:100C60008091B90181115CCF81E08093940184EA85
:100C70008093BC001092BA0126CF85EC8093BC0013
:100C80001092BA0180919301803230F4E091930187
:100C9000F0E0ED58FE4F10826091930170E0E0911A
:100CA000EB01F091EC0183E791E00995109293013B
:100CB0000ACF1092B80134CF1F920F920FB60F9245
:100CC00011242F933F934F935F936F937F938F9351
:100CD0009F93AF93BF93EF93FF93E0919E02F091A8
:100CE0009F0290818091A00298232091A1023091CF
:100CF000A2022F3F320731F02F5F3F4F3093A20205
:100D00002093A10280919C02811135C0911116C0DF
:100D10002091A1023091A2022536310558F010929F
:100D2000A3023093A6022093A50281E08093A4023F
:100D300080939C021092A2021092A10280919503CE
:100D4000882341F080919403911161C061E0811189
:100D500061C02D9AFF91EF91BF91AF919F918F91BB
:100D60007F916F915F914F913F912F910F900FBEA7
:100D70000F901F90189580919C028130A1F49923C7
:100D8000E9F2E091A4028E0F8093A402F0E0EE0F4E
:100D9000FF1FE456FD4F2091A1023091A20232873D
:100DA000218782E0C5CF80919C02823039F5911174
:100DB00019C0E091A40281E0E43620F08093A30200
:100DC00083E0B6CF8E0F8093A402F0E0EE0FFF1FFA
:100DD000E456FD4F2091A1023091A2023287218773
:100DE00081E0A6CF2091A1023091A20225363105E3
:100DF00008F4A4CF83E080939C02A0CF80919C0252
:100E0000833009F09BCF992309F494CF97CF88239F
:100E100021F060E00E94B3019DCF2D989BCFCF932E
:100E2000DF93E3EFF1E01382128288EE93E0A0E01B
:100E3000B0E084839583A683B78324E031E03183D7
:100E4000208325EC30E03587248724EC30E0378799
:100E5000268720EC30E0318B208B21EC30E0338B87
:100E6000228B22EC30E0358B248B26EC30E0378B64
:100E7000268B118E128E138E148EE0E9F2E013820F
:100E8000128284839583A683B78386E191E0918360
:100E90008083CCE9D2E0D093A503C093A40380E083
:100EA0000E948700E4E9F3E010821182E8E8F3E0B1
:100EB0001382128288E291E09183808387E28483A7
:100EC00084E1818784E082871386D0937C03C0937A
:100ED0007B0387E0DF91CF910C948700789484B5F1
:100EE000826084BD84B5816084BD85B5826085BD26
:100EF00085B5816085BD80916E00816080936E00B4
:100F000010928100809181008260809381008091A5
:100F10008100816080938100809180008160809356
:100F200080008091B10084608093B1008091B00016
:100F300081608093B00080917A00846080937A0011
:100F400080917A00826080937A0080917A0081603B
:100F500080937A0080917A00806880937A00109262
:100F6000C1001092F2011092F1011092F001109262
:100F7000EF010E947E0284E891E09093EE0180935D
:100F8000ED0185E891E09093EC018093EB011092E4
:100F90008D0380919203823018F098E090938D0336
:100FA0008093900362E370E080E090E00E9424026E
:100FB0006091930388E893E00E94430368EE73E036
:100FC00080E090E00E94240260E388E893E00E94C1
:100FD0002D04CBE4D6E4CE010197F1F760E388E875
:100FE00093E00E942D042197F1F760E388E893E0F5
:100FF0000E942D0483E592E00197F1F760E288E812
:1010000093E00E942D0460918D03606240E088E8C7
:1010100093E00E94460484E080938E0340E06CE0FD
:1010200088E893E00E94460440E061E088E893E0AD
:101030000E944604CBE3DFE1CE010197F1F782E0A5
:1010400080938F0340E066E088E893E00E944604C6
:1010500040E062E088E893E00E9446042197F1F7BF
:10106000C8E000E010E040E060E888E893E00E941B
:101070004604C093930360E088E893E00E94430332
:101080000115110581F30E947001882361F30E940C
:101090000000E9CFEE0FFF1F0590F491E02D0994B9
:1010A000F894FFCF0000000003018601A400500166
:1010B000D500B300C700000000001403E7022A04B3
:1010C000BD02E002CD02BE02000000005D04860108
:0410D0002A04560296
:107E0000112484B714BE81FFF0D085E080938100F7
:107E100082E08093C00088E18093C10086E0809377
:107E2000C20080E18093C4008EE0C9D0259A86E02C
:107E300020E33CEF91E0309385002093840096BBD3
:107E4000B09BFECF1D9AA8958150A9F7CC24DD24C4
:107E500088248394B5E0AB2EA1E19A2EF3E0BF2EE7
:107E6000A2D0813461F49FD0082FAFD0023811F036
:107E7000013811F484E001C083E08DD089C08234E0
:107E800011F484E103C0853419F485E0A6D080C0E4
:107E9000853579F488D0E82EFF2485D0082F10E0AE
:107EA000102F00270E291F29000F111F8ED06801E7
:107EB0006FC0863521F484E090D080E0DECF843638
:107EC00009F040C070D06FD0082F6DD080E0C81688
:107ED00080E7D80618F4F601B7BEE895C0E0D1E017
:107EE00062D089930C17E1F7F0E0CF16F0E7DF06D8
:107EF00018F0F601B7BEE89568D007B600FCFDCFD4
:107F0000A601A0E0B1E02C9130E011968C91119780
:107F100090E0982F8827822B932B1296FA010C0160
:107F200087BEE89511244E5F5F4FF1E0A038BF0790
:107F300051F7F601A7BEE89507B600FCFDCF97BE46
:107F4000E89526C08437B1F42ED02DD0F82E2BD052
:107F50003CD0F601EF2C8F010F5F1F4F84911BD097
:107F6000EA94F801C1F70894C11CD11CFA94CF0C13
:107F7000D11C0EC0853739F428D08EE10CD085E9AC
:107F80000AD08FE07ACF813511F488E018D01DD067
:107F900080E101D065CF982F8091C00085FFFCCF94
:107FA0009093C60008958091C00087FFFCCF809118
:107FB000C00084FD01C0A8958091C6000895E0E648
:107FC000F0E098E1908380830895EDDF803219F02E
:107FD00088E0F5DFFFCF84E1DECF1F93182FE3DFCA
:107FE0001150E9F7F2DF1F91089580E0E8DFEE27F6
:047FF000FF270994CA
:027FFE00040479
:00000001FF
